:020000040800F2
:10000000503C0020B101000847150008BB01000862
:1000100045150008E3030008D116000800000000A1
:1000200000000000000000000000000019010008AE
:1000300065080008000000005D010008A115000827
:10004000CB010008CB010008CB010008CB01000860
:10005000CB010008CB010008CB010008CB01000850
:10006000CB010008CB010008CB010008CB01000840
:10007000CB010008CB010008CB010008CB01000830
:10008000CB010008CB010008CB010008CB01000820
:10009000CB010008CB010008CB0100087D08000857
:1000A000CB010008CB010008CB010008CB01000800
:1000B000CB010008CB010008CB010008D90C0008D7
:1000C000210C0008CB010008CB010008CB0100087F
:1000D000CB01000891160008CB010008CB010008F5
:1000E000CB010008CB010008CB0100080000000094
:1000F0000000000000000000000000000000000000
:10010000CB010008DFF80CD000F0A8F80048004749
:1001100095220008503C0020224B19680868B0E87E
:10012000F00F80F30988BFF36F8F4FF0000080F36A
:1001300011884EF00D0E7047000000000648006860
:10014000006880F3088862B661B6BFF34F8FBFF3D3
:100150006F8F00DF00BF00BF08ED00E0EFF3098004
:10016000BFF36F8F0F4B1A6820E9F00F106008B5CE
:100170004FF0500080F31188BFF34F8FBFF36F8FA4
:1001800003F042F84FF0000080F31188BDE808400A
:1001900019680868B0E8F00F80F30988BFF36F8F23
:1001A000704700BFD8010020EFF3058070470000C2
:1001B0000648804706480047FEE7FEE7FEE7FEE701
:1001C000FEE7FEE7FEE7FEE7FEE7FEE7CD150008E7
:1001D00005010008D2B201E000F8012B491EFBD254
:1001E00070470022F6E710B513460A460446194642
:1001F000FFF7F0FF204610BD2DE9F05F0546002017
:1002000092469B4688460646814640241BE0284687
:1002100041464746224600F042F853465A46C01A25
:10022000914110D311461846224600F029F82D1AA4
:1002300067EB01084F4622460120002100F020F81C
:1002400017EB00094E41201EA4F10104DFDC4846F3
:1002500031462A464346BDE8F09F0000064C074D54
:1002600006E0E06840F0010394E807009847103486
:10027000AC42F6D3FFF74AFF0C3800082C380008D0
:10028000202A04DB203A00FA02F100207047914056
:10029000C2F1200320FA03F3194390407047202A4B
:1002A00004DB203A21FA02F00021704721FA02F320
:1002B000D040C2F12002914008431946704770B502
:1002C0008C1810F8015B15F0070301D110F8013B01
:1002D0002A1106D110F8012B03E010F8016B01F888
:1002E000016B5B1EF9D12B0705D40023521E0DD4E0
:1002F00001F8013BFAE710F8013BCB1A921C03E02E
:1003000013F8015B01F8015B521EF9D5A142D8D365
:10031000002070BD00B583B002468DF804100121A5
:10032000009101AB7821012001F004F803B000BD79
:1003300010B58AB0002012490290039004900590F5
:10034000069007900890099009680191044601AA57
:1003500003211154401C2428FBDB24201346009069
:1003600026227821012000F0E5FF01208DF80440CD
:1003700001AB25227821009000F0DCFF0AB010BD0F
:100380009C37000800B58BB00021019102910391C8
:1003900004910846059106910791089101AA0991D7
:1003A0005054491C2429FBDB2420134600902622AC
:1003B0007821012000F0BEFF012001AB2522782129
:1003C000009000F0B7FF0BB000BD03B581B0012174
:1003D0000246009102AB7821012000F0ABFF03B090
:1003E00000BDFEE730B48D487222422402702622FE
:1003F0004270132282705222027127224271162209
:100400008271047228224272182282725A22027366
:10041000292242730D228273582202742A224274C6
:1004200015228274702202752B2242751222827567
:10043000502202762C2242761722827660220277A0
:100440002D22427714228277482280F820202E2203
:1004500080F82120112280F82220402380F82430C7
:100460002F2280F825200E2280F82620682280F88E
:100470002820302280F829200F2280F82A205B22B1
:1004800080F82C203122002180F82D20062280F8CF
:100490002E206B2280F83020322280F83120052275
:1004A00080F83220732280F83420332280F83520FF
:1004B000042280F83620532280F83820342280F835
:1004C0003920032280F83A20632280F83C2035222C
:1004D00080F83D20022280F83E204B2280F8402008
:1004E000362280F84120012280F84220432280F801
:1004F00044204FF0370C80F845C04FF01D0C80F8B9
:1005000046C04FF0410C80F848C0382580F849506B
:100510001E2580F84A50492580F84C50392580F82E
:100520004D50072580F84E50612580F850503A25EF
:1005300080F85150082580F85250512580F85450C9
:100540003B2580F85550092580F85650712580F8D4
:1005500058503C2580F859500A2580F85A50692592
:1005600080F85C503D2580F85D500B2580F85E508A
:10057000592580F860503E2580F861500C2580F8A0
:100580006250622580F864503F2580F86550102540
:1005900080F866506A2580F8685080F86930192321
:1005A00080F86A30642380F86C3080F86DC01F23B7
:1005B00080F86E304A2380F8703080F871401A233A
:1005C00080F87230542380F8743080F8752020222F
:1005D00080F876204C2280F87820442280F8792018
:1005E0001B2380F87A305C2380F87C30452380F828
:1005F0007D30212380F87E3080F88020462280F8EC
:1006000081201C2280F88220002200EB8103491CFB
:10061000DA702129F9DB30BC704700008602002027
:1006200010B5304802F0C4FBC1B2A1F1300005287A
:1006300004D2DFE800F01B282F3646002AA001F084
:1006400049F833A001F046F835A001F043F83CA08A
:1006500001F040F840A001F03DF845A001F03AF863
:100660004AA001F037F850A001F034F853A001F08F
:1006700031F85548016855A001F02CF8BDE810404C
:1006800054A001F027B85CA001F024F8BDE81040A8
:10069000FFF74EBE5EA001F01DF8BDE81040FFF769
:1006A00071BE01F095FB044664283CBF401DC4B2F6
:1006B00021465EA001F00EF82046BDE8104002F091
:1006C000E7B901F085FB0446052824BF401FC4B2EA
:1006D00021465DA000F0FEFF2046BDE8104002F07C
:1006E000D7B90000003801404552524F523A2043DA
:1006F0006F6D6D616E6420556E6B6E6F7720636DEC
:1007000064203D20307825782121210D0A00000049
:100710000D0A446562756720636D643A0D0A000036
:10072000302E207072696E742050726F6772616D26
:10073000206275696C642074696D650D0A000000A3
:10074000312E206B65795F4C4544735F6C69676837
:1007500074416C6C0D0A0000322E206B65795F4C81
:100760004544735F4F6666416C6C0D0A00000000E3
:10077000332E206B65795F4C45447320736574207C
:1007800050574D202B2B2B2B200D0A00342E206B85
:1007900065795F4C454473207365742050574D2034
:1007A0002D2D2D2D200D0A006F746865722E20707E
:1007B00072696E742068656C700D0A002A46726555
:1007C0006552544F532A20002801002025730D0A3A
:1007D00000000000417574686F723A4A4326446114
:1007E0005A6869203C76783A3238353430383133BB
:1007F000363E0D0A000000004154393233365F4C5A
:1008000045445F6C69676874416C6C0D0A000000B8
:100810004154393233365F4C45445F6C69676874C4
:10082000416C6C5F4F46460D0A0000007365745FB3
:100830006B65796C6564735F70776D202B2B2B2053
:1008400025640D0A000000007365745F6B65796CA8
:100850006564735F70776D202D2D2D2025640D0A42
:10086000000000007047411E38BF70470020401C48
:1008700080B20228FBD3491EF8D2704700F0C8BAF4
:100880004B481D21272201700121417002218170F6
:100890000321C1700421017105214171062181717B
:1008A0000E21C1711121017214214172172181722F
:1008B0000D21C17215210173122141730F21817322
:1008C0001021C17313210174162141741821817400
:1008D0001921C17402751A2141751B2181752121CD
:1008E000C175202101761F2141760C2181760B21D3
:1008F000C1760A21017709214177082181770721F3
:10090000C1771E2180F82010222180F82110232198
:1009100080F82210242180F8231026213030017025
:100920004270282282702922C2702A2202712B2250
:1009300042712C2282713422C271462202724122FB
:1009400042723C2282723B22C272402202734522D2
:100950004273352282733622C273442202743F22CC
:1009600042743A2282743722C274432202753E22B4
:100970004275392282753822C2753D2202764222A2
:100980004276332282763222C276312202773022B8
:1009900042772F2282772E22C2772D2280F82020C4
:1009A00080F8211080F8221080F823107047000092
:1009B0000A0300204B481D212722017001214170AC
:1009C000022181700321C17004210171052141714F
:1009D000062181710E21C171112101721421417210
:1009E000172181720D21C1721521017312214173EA
:1009F0000F2181731021C1731321017416214174D9
:100A0000182181741921C17402751A2141751B21A5
:100A100081752121C175202101761F2141760C218C
:100A200081760B21C1760A210177092141770821BE
:100A300081770721C1771E2180F82010222180F8BC
:100A40002110232180F82210242180F82310262150
:100A5000303001704270282282702922C2702A220E
:100A600002712B2242712C2282712D22C2713122FD
:100A70000272362242723C2282723B22C2723722BA
:100A80000273322242732E2282732F22C2733322C8
:100A900002743F2242743A2282743022C274342299
:100AA00002753E224275392282753822C2753D2276
:100AB000027635224276402282764122C276422256
:100AC000027743224277442282774522C277462228
:100AD00080F8202080F8211080F8221080F8231060
:100AE000704700000A0300204C481D211A220170A3
:100AF00001214170022181700321C1700421017123
:100B000005214171062181710E21C17111210172EE
:100B100014214172172181720D21C17215210173B7
:100B2000122141730F2181731021C17313210174AC
:100B300016214174182181741921C174272101756E
:100B400042751B2282752122C275202202761F2245
:100B500042760C2282760B22C2760A220277092282
:100B60004277082282770722C2771E2280F820204F
:100B7000222280F82120232280F82220242280F8BB
:100B800023202622303002704170282181702921D3
:100B9000C1702A2101712B2141712C2181712D21DC
:100BA000C17131210172362141723C2181723B2198
:100BB000C17237210173322141732E2181732F219C
:100BC000C173332101743F2141743A218174302172
:100BD000C174342101753E21417539218175382157
:100BE000C1753D2101763521417640218176412133
:100BF000C176422101774321417744218177452104
:100C0000C177462180F82010472180F82110492122
:100C100080F82210482180F8231070470A03002032
:100C200070B5254D254C2946204601F06FFA18B1C4
:100C30002946204601F056FA214D2046294601F06A
:100C400065FA18B12946204601F04CFA1D4D2046A0
:100C5000294601F05BFA18B12946204601F042FA14
:100C6000194D2046294601F051FA18B1294620466F
:100C700001F038FA154D2046294601F047FA18B11F
:100C80002946204601F02EFA114D2046294601F052
:100C90003DFA18B12946204601F024FA0D4D2046B0
:100CA000294601F033FA002808BF70BD29462046C6
:100CB000BDE8704001F016BA08010A050054004072
:100CC00008010F0508010E0508010B0508010905BB
:100CD0000801080508010C052DE9F041DFF808813D
:100CE000424F4146384601F011FA414E414C002531
:100CF00050B14146384601F0F5F9217801223270B1
:100D0000384601F0D0F95DE03B49384601F0FEF984
:100D100068B1384601F0C4F901463848831C0278AE
:100D2000D1540178491C01F03F0101704AE0DFF81D
:100D3000D0803846414601F0E9F920B131493846C2
:100D400001F0E4F9B8B13049384601F0DFF928B3D1
:100D5000384601F0AAF94FF48471384601F0AAF937
:100D60004FF48571384601F0A5F940F20911384673
:100D700001F0A0F926E03178072923D2615C3846DA
:100D800001F091F93078401CC1B23170072919D1B6
:100D9000A570E57025716571A57113E01B4C38468F
:100DA000214601F0B3F920B12146384601F09AF905
:100DB00008E04146384601F0A9F918B141463846E5
:100DC00001F090F94FF48471384601F07FF940F258
:100DD0000911384601F07AF93846BDE8F0414FF480
:100DE000857101F073B9000009010105005400404C
:100DF000420100203B0100200901060544020020B9
:100E00000901070508010A05090104050901020590
:100E10002DE9F0474FF4807000F030FE01270025E7
:100E2000914EDFF84882002800F0EB80380200F095
:100E30001FFE4FF0E020806970603902404601F0EB
:100E400054F8DFF82C923178A0B102297ED0032922
:100E500006BF70780128BDE8F0874FF40071404666
:100E600001F043F8002814BF0420BDE8F08730707B
:100E7000BDE8F0874FF0020A012913D07D4C02290A
:100E80001BD0032978D0042918BFBDE8F087B570BE
:100E9000F5704046BDE8F04702224FF40073482148
:100EA00000F0DCBFB57035767576F57089F80050C6
:100EB000757086F800A0BDE8F087B078401CB0706F
:100EC000B078082818D27078012818BFBDE8F087DC
:100ED000707E005DB178C1F1070107FA01F10842A7
:100EE0004FF40071404603D0BDE8F04700F078BFF2
:100EF000BDE8F04700F072BFB078082818BFBDE821
:100F0000F087707858B14FF40073022248214046B0
:100F100000F0A4FF707E401C70760320A7E7307EAF
:100F2000F0B1F07850B1544899F80010831C027861
:100F3000D1540178491C01F03F010170F07800287C
:100F4000EBD002224FF40073102100E03AE040465B
:100F500000F084FF4FF40071404600F03FFFDCE7F3
:100F600099F8001001F0FE008028E7D1F77001F039
:100F700001007070E2E7FFE7B57070784FF400731E
:100F80004FF0020270B11021404600F067FF717E01
:100F9000095D404611F0800F4FF400710CD000F055
:100FA0001FFF0BE04821404600F058FF307E401CF8
:100FB000307689F8005001E000F010FF86F800A0BC
:100FC000BDE8F0877078002818BFBDE8F087B078DA
:100FD000082828BFBDE8F0874FF40071404600F0B4
:100FE00084FF002808BFBDE8F087B07899F80010AA
:100FF000C0F1070007FA00F0084389F80000BDE8D7
:10100000F0874FF4007000F039FD002808BFBDE8FC
:10101000F0874FF4007000F02BFD4FF480714046D4
:1010200000F063FF002808BFBDE8F0874FF40071AF
:10103000404600F05AFF70B13570F5700122002172
:10104000500200F023FD0D48002211460068BDE863
:10105000F04702F04FB83770BDE8F0470022114664
:101060004FF4007000F012BD6C030020000C014032
:101070004301002074030020440200202C010020C2
:1010800010B5044640F2036001F0E8FB012C0CBFF0
:101090004FF44063C02302221021064800F0DEFE18
:1010A0000121204600F0D8F92046BDE8104001217A
:1010B00000F0E8B9000C01402DE9F0410D4606466C
:1010C000002100F0C9F9234F012E15D08023022200
:1010D0001021384600F0C2FE00240320FFF7C3FBB6
:1010E00005F08001012E0FD000294FF08001384615
:1010F00015D000F075FE14E04FF4006302221021B9
:10110000384600F0ABFEE7E700294FF400613846AF
:1011100002D000F065FE04E000F060FE01E000F0A7
:101120005DFE6806050E0420FFF79DFB0121304699
:1011300000F092F90620FFF796FB0021304600F000
:101140008BF90320FFF78FFB601CC4B2082CC4D3BB
:10115000BDE8F081000C014010B504461348012C95
:101160001CD080230222102100F078FE01212046AD
:1011700000F088F90121204600F06EF90620FFF703
:1011800072FB0021204600F07DF90620FFF76BFB83
:101190002046BDE81040002100F05EB94FF4006326
:1011A0000222102100F05AFEE0E70000000C01408E
:1011B00010B50446002100F04FF91348012C1BD054
:1011C00080230222102100F049FE0021204600F079
:1011D00059F90620FFF747FB0121204600F03CF9B2
:1011E0000320FFF740FB0121204600F04BF9BDE84A
:1011F00010400620FFF737BB4FF400630222102196
:1012000000F02CFEE1E70000000C014070B5002466
:101210000546214600F020F90320FFF724FB0121B9
:10122000284600F02FF90320FFF71DFB374E012D54
:101230003BD0802302224821304600F00FFE0121DE
:10124000284600F009F90320FFF70DFB012D34D0EB
:101250008021304600F049FE002847D0601CC4B20F
:10126000FA2C38D90021284600F0F6F8012D2AD0B2
:10127000802302221021304600F0F0FD0021284694
:1012800000F000F90620FFF7EEFA0121284600F0F1
:10129000E3F80320FFF7E7FA0121284600F0F2F80F
:1012A0000620FFF7E0FA012070BD4FF40063022230
:1012B0004821304600F0D2FDC1E74FF400613046CE
:1012C00000F013FEC8E74FF40063022210213046FD
:1012D00000F0C4FDD2E70120FFF7C5FA012D0ED0C2
:1012E0008021304600F001FE0028B7D100212846B9
:1012F00000F0B2F80320FFF7B6FA002070BD4FF4FB
:101300000061304600F0F1FDEEE70000000C014006
:1013100070B5074D012101FA00F429780C4218BF7D
:1013200070BDFFF7ADFE28782043287070BD000027
:10133000AA0100202DE9F0411E4690460C460746C2
:10134000069DFFF709FF04F0FE013846FFF7B4FEE3
:101350003846FFF75BFF50B13A4621461F4800F080
:10136000B9F93846FFF724FF0220BDE8F081414675
:101370003846FFF7A1FE3846FFF748FF48B1394627
:1013800017A000F0A7F93846FFF712FF0320BDE8C9
:10139000F081002D12BF0024FF20BDE8F08116D996
:1013A000315D3846FFF788FE3846FFF72FFF50B112
:1013B0003A46214619A000F08DF93846FFF7F8FEAD
:1013C0000420BDE8F081601CC4B2AC42E8D33846CA
:1013D000FFF7EEFE0020BDE8F0810000C0370008F6
:1013E0004552524F523A2073656E6420776F726493
:1013F0005F61646472204949435F576169745F416A
:10140000636B28696E64657829213D203020696E00
:10141000646578203D2025640D0A00004552524F36
:10142000523A2073656E64206461746120494943B7
:101430005F576169745F41636B28696E64657829E1
:10144000213D203020693D256420696E6465782047
:101450003D2025640D0A000002460948012A05D0F6
:1014600000294FF0400109D000F0BABC00294FF428
:10147000806101D000F0B4BC00F0B0BC00F0AEBCA4
:10148000000C014002460948012A05D000294FF00E
:10149000800109D000F0A4BC00294FF4006101D004
:1014A00000F09EBC00F09ABC00F098BC000C01401B
:1014B00010B540F2036001F0D1F94FF4C06001F0C3
:1014C000CDF9194C4FF4807302224821204600F0D8
:1014D000C5FC631502224821204600F0BFFC08210C
:1014E000012000F07FFC0921012000F07BFC02229A
:1014F0000021D00100F0CAFA01220021500200F0C0
:10150000C5FAA01500F012FB601500F00FFBA01546
:1015100000F004FB601500F001FB00220521BDE88E
:101520001040172000F078BF000C01400100044873
:101530004FF0100101D000F053BC00F04FBC000090
:10154000000C0140FEE770470B4907220A6128287A
:1015500002BF012048617047292808BF022008D037
:101560002A2808BF042004D02B2814BF0A614A612E
:101570007047486170470000001001400749282863
:1015800008BF012007D0292808BF022003D02A283D
:1015900014BF0720042008617047000000100140BC
:1015A00010B5502080F31188BFF34F8FBFF36F8FBA
:1015B00002F010F818B104494FF080500860002084
:1015C00080F3118810BD000004ED00E02E4908688A
:1015D00040F0010008604A682C48104048600868E4
:1015E00020F4102020F080700860086820F480202B
:1015F0000860486820F47F0020F0006048600868B8
:1016000020F4102020F0807008604FF41F008860E4
:101610000A68002042F001020A600A68401C12F0C9
:10162000020F02D1B0F5A06FF7D1086810F0020FD9
:1016300028D04868486048684860486840F480603E
:101640004860486820F4701020F0006048604868E6
:1016500040F4201040F000604860086840F080705E
:101660000860086810F0007FFBD0486820F0030095
:101670004860486840F002004860486810F0080F71
:10168000FBD07047FEE70000001002400C00FFE8AE
:1016900070B50C4D0C4C2946204601F010FC10B1E1
:1016A000FEF7BEFF07E0094D2046294601F007FC82
:1016B000002808BF70BD29462046BDE8704001F0F3
:1016C000F2BB0000050305000038014004030400DC
:1016D000FEE700000FB4054B10B503A9044A0298B9
:1016E00000F01CF810BC5DF814FB0000D51B0008CE
:1016F0001C0200200021016081808171704702E09E
:1017000008C8121F08C1002AFAD17047704700208C
:1017100001E001C1121F002AFBD170472DE9FF4FE4
:101720008DB09B460F460446002606E025280BD0C8
:101730005A460F999047641C761C20780028F5D1F2
:1017400011B03046BDE8F08F0025A8460122984927
:1017500000E0054314F8013F203B02FA03F0084281
:10176000F7D120782E2817D114F8010F45F0040581
:101770002A280ED06FF02F022078A0F1300109291D
:101780000AD808EB880102EB410100EB0108641C58
:10179000F2E757F8048B641C20786C280DD004DC29
:1017A0004C2812D06A2811D104E074280DD07A2870
:1017B0000CD10AE045F4001507E0617845F4801586
:1017C000814202D1641C05F58015641C2278692AC7
:1017D00045D008DC002AB3D0582A69D0632A10D03B
:1017E000642A08D13BE0702A67D0732A13D0752A87
:1017F0005CD0782A5CD010465A460F999047761CE8
:10180000D3E017F8040B8DF8000000208DF80100DC
:10181000E946012003E057F8049B4FF0FF306907C9
:101820004FF0000501D40AE06D1C45450DDA8542F4
:10183000FADB19F805100029F6D106E06D1C854287
:10184000FCDB19F805100029F8D12E4404E019F842
:10185000010B5A460F9990476D1EF8D2A5E00A2059
:101860000021CDE90801C5F3025002280DD001CFB7
:10187000C117031E71F100030DDA4FF0000CD0EB1D
:101880000C006CEB01012D2308E0FF1D27F007077A
:10189000F7E80201EDE72B0504D52B238DF828305E
:1018A00001233BE0EB0739D02023F7E70A2000E0D3
:1018B00010200021CDE9080107E01020002145F0AB
:1018C0000405CDE908014FF00808C5F302500228CD
:1018D0000FD001CF00214FF0000A2B071FD5702A2F
:1018E0000DD0DDE908C38CF0100C5CEA030C0CD0C1
:1018F00015E0FF1D27F00707F7E80201EBE740229C
:101900008DF828204FF0010A0BE050EA010306D0C1
:1019100030238DF828308DF8292002239A46582A42
:1019200004D024A20DF120090B9209E026A2F9E7C8
:10193000DDE90823FEF760FC0B9B9B5C09F8013D89
:1019400050EA0102F4D1ADEB09002030089068079D
:1019500001D44FF001080899884502DDA8EB010089
:1019600000E000208046002506E00AA85A46405DB7
:101970000F9990476D1C761C5545F6DB04E030202E
:101980005A460F999047761CB8F10001A8F101085A
:10199000F5DC05E019F8010B5A460F999047761CC3
:1019A0000899481E08900029F4DC641CC5E6000074
:1019B0000928010030313233343536373839616225
:1019C00063646566000000003031323334353637E9
:1019D00038394142434445460000000010B54FF4F9
:1019E000407000F06BFD00F097F900F04DF91749D9
:1019F00000200870487040F2046000F02FFF40F2B1
:101A0000056000F02BFF40F2066000F027FF4FF664
:101A1000F873032248210E4800F020FA4FF6FF73B6
:101A2000032248210B4800F019FA41F6FF73032204
:101A30004821094800F012FA00F03CFF00F0EEFFE8
:101A4000BDE8104005A0FFF745BE0000440200209D
:101A50000010014000140140001801407379732008
:101A6000696E69742066696E697368200D0A0000EA
:101A700001490860704700001404014002490968E8
:101A8000084018BF012070471404014070B4224D73
:101A90002B6883432B602C1D236883432360231D05
:101AA000D3F800C02CEA000CC3F800C003F1040C0A
:101AB000DCF800608643CCF8006011B1012904D045
:101AC00006E029680143296002E0216801432160A2
:101AD0007AB1012A15D0022A1CBF70BC7047196860
:101AE00001431960DCF800100843CCF8000070BC1A
:101AF0007047196801431960DCF8001021EA000002
:101B0000F3E7196881431960DCF800100843CCF84A
:101B1000000070BC704700000004014002490A68E0
:101B2000104308607047000000040140014908604C
:101B3000704700001404014000F09EF8012140F6B7
:101B4000FF7000F059F800F08FF805A0FFF7C2FD14
:101B500000F082F84FF4FA7001F0AEFAF8E70000F6
:101B6000666565645F7774675F7461736B20737417
:101B70006172740D0A00000010B5DFF850C05524E2
:101B80008CF80840AA248CF809408CF80A008CF8DC
:101B90000B108CF80C208CF80D3000210CF1080291
:101BA00008460623145C401C2144C0B2C9B29842C6
:101BB000F8DB8CF80E10064C0421204600F00EF9DC
:101BC0002046BDE81040042100F00AB96C03002053
:101BD0000008014070B5074D0446C1B2284601F027
:101BE000EBF80721284601F03AF90028F9D0204601
:101BF00070BD00000038014010B4164C144B45F283
:101C0000555C1A46C4F800C0D4F80CC0521E0CF043
:101C1000010C03D0BCF1000FF6D102E0BCF1000FC3
:101C200009D16160E1685B1E01F0020102D0002968
:101C3000F8D103E011B110BC00207047C0F30B00D5
:101C4000A0604AF6AA20206010BC01207047000066
:101C5000FFFF0F000030004002494AF6AA2008604A
:101C6000704700000030004002494CF6CC4008604C
:101C70007047000000300040024945F255500860AE
:101C8000704700000030004070B540F2036000F083
:101C9000E5FD1E4D4FF4805303221021284600F02D
:101CA000DDF8A914284600F09BF840F2046000F02B
:101CB000D5FD4FF4C06000F0D1FD154C0723022282
:101CC0001021204600F0CAF80721216140F203608C
:101CD00000F0C4FD102303221946284600F0BEF888
:101CE0001021284600F07CF840F2026000F0B6FDBA
:101CF000084C042302221021204600F0AFF82046B1
:101D0000BDE87040042100F06BB80000000C0140F9
:101D1000001001400008014010B540F2026000F0E0
:101D20009DFD40F20E6000F099FD214C4FF40073D0
:101D300003221821204600F091F8231503220421E4
:101D4000204600F08BF81B4C204601F039F84FF488
:101D5000E131204600F0FCFF0021204601F0E2F8CE
:101D60000021204601F0D0F80021204601F0BEF805
:101D70000021204601F085F80021204601F07BF883
:101D80000421204601F0BAF80821204601F0C4F8E9
:101D9000204601F05FF840F20531204601F077F867
:101DA00000220721BDE81040252000F035BB0000CF
:101DB00000080140003801400349044A51F820104E
:101DC00052F8200000F091B89000002000000020A0
:101DD00001480078704700004401002041617047CD
:101DE000016170478A07130F0F229A40DFF868C01D
:101DF000984004290AD2DCF808109143CCF8081066
:101E0000DCF808100843CCF80800704708290AD20B
:101E1000DCF80C109143CCF80C10DCF80C100843E3
:101E2000CCF80C0070470C290AD2DCF81010914352
:101E3000CCF81010DCF810100843CCF810007047F4
:101E4000DCF814109143CCF81410DCF8141008439B
:101E5000CCF8140070470000000001402DE9F003A9
:101E600001F00F0C11F0100F18BF4CEA020C002209
:101E70000F27012606FA02F41C4012D0D0F8008089
:101E8000950007FA05F90CFA05F528EA090845EA6C
:101E90000805282908BF446102D0482908BF046109
:101EA0000560521C92B2082AE4D3082206FA02F412
:101EB0001C4013D0D0F804809500203D07FA05F9A6
:101EC0000CFA05F528EA090845EA0805282908BF9B
:101ED000446102D0482908BF04614560521C92B297
:101EE000102AE3D3BDE8F00370478068084018BFAC
:101EF0000120704770B4DFF86CC010F0004F14BFC1
:101F0000DCF81C20DCF80420C0F303444FF4401339
:101F100033EA00054FEA50534FEA031386B206FA3C
:101F200003F316D010F4801F08BF9A4303D0032593
:101F300005FA04F4A24342F07062002918BF1A4364
:101F400010F0004F14BFCCF81C20CCF8042070BC5B
:101F50007047DCF8044022F0706224F07064CCF822
:101F60000440EAE700000140F0B5394F044683B071
:101F700038787978401A4030C11700EB916121F030
:101F80003F01401AC6B2052E4FF000002EBFBD1C07
:101F900003B0F0BD7978495D21707978491C01F072
:101FA0003F017970217855290ED17978401CC0B253
:101FB000495D61707978491C01F03F017970617861
:101FC000AA2909D05529F0D0401CC0B2B042E1D3B3
:101FD00002E0032001F070F838787978401A403038
:101FE000C11700EB916121F03F01401A0328F0DB9B
:101FF00002207978495D21547978401C491C01F010
:102000003F01C0B279700528F3D30021224608466B
:10201000042312F800C0401C6144C0B2C9B2984207
:10202000F7DB2079814202BF304603B0F0BD09A042
:10203000FFF750FB2179E078CDE90001A3786278C1
:1020400021780AA0FFF746FB03B00020F0BD000096
:1020500044020020693263207265637620646174F3
:1020600061206572726F720D0A0000006461746114
:102070005B305D203D202523782C5B315D3D2025A4
:1020800023782C5B325D3D202523782C5B335D3D2E
:10209000202523782C5B345D3D202523780D0A0014
:1020A0000069C0B2704701617047016841F00101E9
:1020B0000160704700EB9110026801F01F010123DD
:1020C00003FA01F122EA01010160704700EB91106F
:1020D000026801F01F01012303FA01F111430160BD
:1020E00070470000084A914202BF41698069704709
:1020F00000EB91500268C1F30441012303FA01F19E
:1021000022EA0101016070470901010510B442682B
:1021100002F48063C1F38912825800EB915001F000
:102120001F044FF0010C0CFA04F400682240C1F3C4
:1021300004440CFA04FC00EA0C00DFF828C06145F6
:102140001CBFDFF824C0614504D1002A1ABF002B50
:1021500001220022002816BF002A0020012010BC06
:1021600070470000090106050901070582B001203A
:10217000FFF7CEF8FEF736F900214F20FEF725F9DC
:1021800001210020FEF721F900214A20FEF71DF968
:1021900001214B20FEF719F9042000F079FCFEF72D
:1021A000C7F83A4D3A4C4FF0FF3805F1300600279A
:1021B000002201AB11461046CDF8008001F0C0F9B5
:1021C0000198C1B2C0F30729202915D060291AD07F
:1021D0007029EDD1062000F06FFF48460021421E15
:1021E000272A45D223780022002B3ADD15F802C0B9
:1021F000844533D1B05C35E0052000F05DFF4846F2
:1022000000F046FCD4E7062000F056FF48460121C6
:10221000421E272A15D223780022002B08DD15F84C
:1022200002C0844501D1B05C03E0521C9A42F6DB47
:102230003846262824BFA2788242B9D3FEF76AF82E
:10224000B6E7A0F12801022902D8FFF77DF9AFE730
:10225000B9F12B0F08BFFEF76BF8A9E7521C9A42A1
:10226000C4DB3846262824BFA2788242A0D3E5E703
:10227000A0F12801022902D8FFF780F998E7B9F107
:102280002B0F08BFFEF77EF892E700000A0300203C
:102290002001002082B04FF4407000F00FF9FFF7EA
:1022A0003BFDFFF7F1FC344800240470447040F219
:1022B000046000F0D3FA40F2056000F0CFFA40F27B
:1022C000066000F0CBFA4FF6F873032248212B4842
:1022D000FFF7C4FD4FF6FF73032248212848FFF79C
:1022E000BDFD41F6FF73032248212648FFF7B6FDE6
:1022F00000F0E0FA00F092FB2348FFF7EBF923A08F
:10230000FFF7E8F92748816827A0FFF7E3F928A03D
:10231000FFF7E0F90120CDE90004002320222DA1E0
:102320002F4800F0E7FF2F490420CDE900010023EA
:10233000C0222DA12E4800F0DDFF0320CDE90004CE
:10234000002380222BA12D4800F0D4FF2C48022529
:10235000CDE90050002380222AA12C4800F0CAFFBA
:10236000CDE900540023402229A12A4800F0C2FFF1
:1023700000F012FFFEE700004402002000100140C0
:1023800000140140001801405C1A0008667265657F
:1023900072746F73202C20696E6974206F6B212119
:1023A0000D0A00002001002025730D0A0000000026
:1023B000417574686F723A4A432644615A686920CD
:1023C0003C76783A3238353430383133363E0D0A7F
:1023D000000000005461736B4C6564310000000024
:1023E000A92C00082C010020546F437075000000D8
:1023F000392B00086B65795F626F6400F12A000871
:10240000300100206C696768747300006D2100085A
:1024100077746700391B000830B4264D4FF0000C6C
:1024200063462C6804F4E064B4F5A06F04BF4FF079
:10243000020C63461FD00DDCB4F5407F08BF4FF09F
:10244000040C18D0B4F5806F04BF4FF0030C0123C7
:1024500011D00BE0B4F5C06F04BF4FF0010C0323A3
:1024600009D0B4F5E06F08BF042304D0124B2B60F1
:102470004FF0020C6346CCF1040C01FA0CF1C3F1ED
:1024800004034FF00F0C2CFA03F31A40114300F130
:10249000E022090182F8001400F01F01012202FA73
:1024A00001F14009800000F1E020C0F8001130BCCB
:1024B000704700000CED00E00005FA05034940F00C
:1024C000FD7040F080600860704700000CED00E097
:1024D0002DE9F041194E0F460446F5683068001D9D
:1024E00000F028FD48B93068012190F82C0001FA6D
:1024F00000F0316921EA00003061B4F1FF3F07D1FB
:1025000037B13068BDE8F041011D0D4800F04EBD07
:1025100030682C44AC424460306800F1040104D2BD
:10252000F06BBDE8F04100F026BDB06B00F023FD7C
:10253000B06AA04288BFB462BDE8F081D801002033
:102540003C1C0020164E154DDFF85890A6F1A00750
:102550004FF080586868B8B100F034FDF068C46886
:10256000201D00F0E7FCA868401EA8606868401EB7
:10257000686000F041FD206B00F04CFD204600F04B
:1025800049FD68680028E7D138680128E2D9C9F810
:102590000080BFF34F8FBFF36F8FDBE7D8010020C0
:1025A000281C002004ED00E010B415490A6882429E
:1025B00038BF1146FAD34B6803EB010C844503D1B5
:1025C0004068184448600846436803EB000C944593
:1025D00018BF02600ED1DFF82CC0DCF800C06245E5
:1025E00008BFC0F800C005D052681A4442600A68AB
:1025F00012680260814218BF086010BC704700007A
:10260000C4010020AC01002006484068B0F1FF3F43
:1026100000D0FEE7502080F31188BFF34F8FBFF347
:102620006F8FFEE7CC0100202DE9F0410446002524
:1026300000F0E2FD3E4E002706F118033068002846
:1026400018BF70691DD13B494FF4C05011F0070FFE
:1026500006D0C81D20F007013648081AC0F5C05042
:1026600008440838C3E9001720F0070030604760CD
:10267000421A0760C1E90002B2604FF00040726088
:10268000706104424AD1002C1CBF04F10800A04232
:1026900044D910F0070F0BD000F00701C1F1080179
:1026A000014481423AD9084611F0070F00D0FEE7F5
:1026B000002833D0716888429CBF1F4A1C682DD8FF
:1026C0006168814205D2216800291CBF22460C4660
:1026D000F6D131688C4221D0116801F108052168DA
:1026E000116061680A1A102A09D9211811F0070F20
:1026F00000D0FEE74A6060600846FFF755FF61685A
:102700007068401A7060B268824288BFB0607069B9
:102710000843C4E90070F068401CF06000F0C8FF96
:1027200015F0070F04BF2846BDE8F081FEE7000062
:10273000AC01002088030020C40100204FF0807C01
:1027400040F804CC21F0010140F8081C034B40F88C
:102750000C3C40F8202C4038704700000926000847
:1027600030B437A188B091E816108DE8161035A165
:10277000374DD1E90021CDE9042132A10346D1E949
:102780000021CDE9062169680020C1F381023149A9
:10279000002A18BF012A01D0022A30D06A68D5F871
:1027A00004C0C2F303121DF8022021FA02F2CCF396
:1027B000022C04AC14F80CC022FA0CF4D5F804C0B6
:1027C00006ADCCF3C22C15F80CC022FA0CFC002B81
:1027D00001BF084608B030BC7047012B01BF10464E
:1027E00008B030BC7047022B01BF204608B030BC97
:1027F0007047032B08BF604608B030BC70476A685A
:10280000DFF854C002F48032B2F5803F05D16A6827
:1028100002F40032B2F5003F00D161466A68D5F893
:1028200004C0C2F383421CF0006F18BF42F01002D4
:102830000F2A38BF921C42F100025143AEE700005C
:102840000000000000000000010203040607080960
:102850000010024000127A0000093D00810901F1D8
:10286000804101F504310A6800F01F00012303FADA
:1028700000F0104308607047810901F1804101F5C3
:1028800004310A6800F01F00012303FA00F022EA75
:10289000000008607047810901F1804101F50431B1
:1028A0000A6800F01F00012303FA00F010430860DB
:1028B00070470000F0B51A4887B01A4F90E80E1024
:1028C0008DE80E10D0E90410CDE90410164E002456
:1028D0006D46384655F82410FFF707FB012819D03C
:1028E000641C062CF5DB70782121002818BF012814
:1028F00012D003281CBF042802280DD0052801BFD0
:102900002420307007B0F0BD317008A0FEF7E2FE61
:1029100007B0F0BD7470E6E7317007B0F0BD00009D
:1029200084370008001801402001002063616E20F8
:102930006E6F74207363616E20626F617264206ECB
:10294000756D0A002DE9F0478AB00025DFF8A080F8
:1029500000950195029503950495059506950795B3
:10296000089598F800002C4600283CD9DFF88490A0
:102970004FF0010A6E46A9F1EA072046FFF71CFA5C
:1029800000280CBF06F804A03555305D395D88423B
:1029900021D013D398F805004FF0000300F1010097
:1029A00088F8050019F8041088F803101A464FF04B
:1029B0000100FFF7E1F8611C0FA00AE019F804100C
:1029C000002388F804101A460220FFF7D5F8611C8E
:1029D0000EA0FEF77FFE305D3855601CC4B298F83B
:1029E00000008442C9D30AB00020BDE8F08700008F
:1029F000200100200A030020627574746F6E202588
:102A00006420646F776E0D0A0000000062757474B4
:102A10006F6E2025642075700D0A000070B5124B92
:102A200046255878002818BF012811D0032818BF60
:102A300004280DD04FF0490402280DD005280ED0EF
:102A4000FDF71EFF9D70BDE8704008A0FEF742BE76
:102A5000FDF716FF9D7070BDFDF7ACFF01E0FEF7BE
:102A600043F89C7070BD00002001002063616E205F
:102A70006E6F74207363616E20626F617264206D8B
:102A800061702C7365742064656661756C740A00EE
:102A900010B58AB0642888BF6420144901AA087060
:102AA000491C0024095C0194029403940494069444
:102AB000059407940894204609948DF80410115445
:102AC000401C2428FBDB242013460122009078219F
:102AD0001046FEF72FFC01208DF8044001AB2522A3
:102AE00078210090FEF726FC0AB010BD44010020BA
:102AF000002408A0FEF7EEFD0E490020621C0855D8
:102B0000D4B2242CFAD3FFF71DFF322000F0D4FA00
:102B1000F9E700007461736B32207363616E5F6B61
:102B200065795F626F6172642073746172740D0AFB
:102B3000000000002002002084B0002501954FA075
:102B40000295FEF7C7FDFEF7B3FC554E554F4FF00B
:102B500020084FF05509A6F114044FF0700A4FF009
:102B6000FF321146002000F0BDF801A8FFF7FCF984
:102B70000028F4D09DF806009DF80710302841D0B9
:102B800016DC012829D002282ED0102833D0202886
:102B9000E5D148EA012B00225A231146FEF7ECFF4B
:102BA000009503235A460021206900F06BFCD6E70C
:102BB00040282ED0502831D0602850D07028CED157
:102BC0004AEA0122009503230021206900F05AFC03
:102BD00000225A231146702018E00022E3781146A3
:102BE0000220FEF7C9FFBAE700222379114602202E
:102BF000FEF7C2FFB3E7FFF7EBF8002203461146EA
:102C0000102003E00022637811463020FEF7B4FF65
:102C1000A5E70022032311464020F7E73046FEF7E0
:102C200069FD86F80090AA20707000214F20FDF702
:102C3000CCFB01210020FDF7C8FB00214A20FDF755
:102C4000C4FB01214B20FDF7C0FB0420FFF720FF50
:102C500000223D705A237D7011465020D6E7602037
:102C600040EA0122009503230021206900F00AFCBC
:102C700000225A2311466020C8E700007461736B7C
:102C80003320636F6D756E69636174652063707561
:102C9000206969632073746172740D0A000000007A
:102CA0003401002044020020002408A0FEF712FD99
:102CB00001210B48FFF71EF9E443E0B2FEF736FCB2
:102CC0004FF4FA7000F0F8F9F6E700007461736BE6
:102CD000345F66756E632073746172740D0A000050
:102CE0000002300070B514460E4600B1FEE700F059
:102CF00069F9154D2868806C78B92868012180F839
:102D00004C1054B12046FFF7E3FB10494FF08050C0
:102D10000860BFF34F8FBFF36F8F00F06DF900F0C5
:102D200051F92868846C002034B1002E08BF621E5F
:102D300029680CBF8A648864296881F84C0000F017
:102D40005BF9204670BD0000D801002004ED00E0D2
:102D500070B50D46044615490020621A8C4216D003
:102D60000ADCA4F18042B2F5884208BF02200BD0F1
:102D7000B2F5806F0BD00DE0B2F5806F07D0B2F5E1
:102D80006C4F08BF032005D1FFF7EAFC02E00220E8
:102D9000FFF7E6FC00EB5500B0FBF5F14FF6F070E5
:102DA000084001F00F010843A06070BD004C0040D6
:102DB0004068C0F308007047C1F3080141607047E4
:102DC000234A10B5811A90422ED012DCA0F588401B
:102DD000B0F180401ED0B0F5806F18BF10BD40F23A
:102DE0001240FFF758FDBDE8104040F21240FFF7D7
:102DF00043BDB1F5806F21D0B1F56C4F18BF10BD48
:102E000040F20E30FFF747FDBDE8104040F20E30B3
:102E1000FFF732BD40F21140FFF73DFDBDE8104025
:102E200040F21140FFF728BD40F21340FFF733FD99
:102E3000BDE8104040F21340FFF71EBD40F21440C1
:102E4000FFF729FDBDE8104040F21440FFF714BD24
:102E5000004C0040C16841F40051C160704700EB74
:102E60009110006801F01F01012202FA01F10840EF
:102E700018BF01207047426922F40072114341617A
:102E80007047426922F48072114341617047C1F377
:102E90008912835801F01F014FF0010C0CFA01F167
:102EA00019438150704700EB91500268C1F304410F
:102EB000012303FA01F122EA010101607047C1F325
:102EC0008912825800EB915001F01F0C012303FA84
:102ED0000CFC006802EA0C02C1F3044103FA01F1A0
:102EE000084216BF002A002001207047C26822F461
:102EF000C062C260C2681143C1607047C26822F0FC
:102F000004021143C1607047026922F44052026119
:102F10000269114301617047C26822F0080211433F
:102F2000C1607047C26822F48052C260C268114317
:102F3000C1607047D0E9013201699A60D0E901238C
:102F40005A604A68824204BF82684A600022026175
:102F50000868401E08600868704700F108014FF0DB
:102F6000FF32C0E90112C1600161002101607047B8
:102F700000210161704710B4D1F800C0BCF1FF3FDF
:102F80000CBF026900F1080205D053681C68644553
:102F900098BF1A46F9D953684B6099608A605160AE
:102FA00008610168491C016010BC704742684A60B2
:102FB00093688B6093685960916008610168491C4F
:102FC00001607047502080F31188BFF34F8FBFF32B
:102FD0006F8F07494868401C4860012818BF704738
:102FE0000448006810F0FF0F08BF7047FEE70000BC
:102FF000CC01002004ED00E00549486838B1401ECE
:10300000486018BF7047002080F311887047FEE7C2
:10301000CC010020002808BF704770B50E4DA0F10C
:10302000080450F8040C6969084200D1FEE72268E0
:1030300002B1FEE78843606000F0DEF8606869680E
:10304000084468602046FFF7AFFA2869401C2861F1
:10305000BDE8704000F02CBBAC0100204FF0E02038
:1030600000210161816105494FF47A720968B1FB61
:10307000F2F1491E416107210161704718020020E9
:1030800010B5FDF791F80A49102807D300F1E020A8
:1030900090F8F0030A78824200D9FEE705480068FC
:1030A000896800F4E060884298BF10BDFEE7000028
:1030B000CC0100200CED00E010B570B10B494A6B5B
:1030C00002B1FEE74A6B521C4A630021FFF700FA87
:1030D00000F0EEFA002818BF10BD4FF080500449F0
:1030E0000860BFF34F8FBFF36F8F10BDD801002072
:1030F00004ED00E02DE9F0411546040001D009B1CE
:10310000FEE7FEE7FFF7BCFF5020EFF3118680F3E8
:103110001188BFF34F8FBFF36F8F94F84C000221DB
:1031200084F84C10A16C491CA164012819D1A06A33
:1031300000B1FEE7154F786B4FF0010800281CBF67
:1031400004F11801124810D0FFF730FFE06A396827
:10315000C96A884205D9002D18BFC5F80080C7F894
:103160001C8086F31188BDE8F081201DFFF7E2FE88
:10317000E06A3A6908FA00F111433961054900EB48
:10318000800001EB8000211DDEE70000D801002057
:10319000141C0020881B002030B583B01148002586
:1031A000CDE900502B4640220FA1114800F0A2F8B3
:1031B000104C012803D0B0F1FF3F12D00EE0502098
:1031C00080F31188BFF34F8FBFF36F8F4FF0FF3045
:1031D000A06201206061E56000F03EF8206B03B062
:1031E00030BDFEE70402002049444C4500000000C9
:1031F00045250008D80100200248416B491C416365
:1032000070470000D8010020114A506B00281EBFF3
:103210000120D06170470020D06110690D49B0FADB
:1032200080F0C0F11F0000EB800051F820306BB13E
:1032300001EB800000F10803416849684160994250
:1032400004BF49684160C86810607047FEE700002D
:10325000D8010020881B0020234910B5087882B0CF
:103260000190FF20087008788DF800009DF800009C
:103270009DF8002000F0F000904200D0FEE79DF89D
:1032800000001A4C00F0500020700720A0609DF84C
:10329000000010F0800F0FD0A068401EA0609DF8C5
:1032A000000040008DF800009DF8000010F0800F35
:1032B000F2D1A068032800D0FEE74FF44070A06070
:1032C000019808700A48016841F4700101600168C2
:1032D00041F070410160FFF7C1FE00206060FCF723
:1032E0002DFF02B0002010BD00E400E0CC01002062
:1032F00020ED00E02DE9F84F8146DDE90A57900006
:103300009A4690460E460090FFF78EF95FEA000B52
:1033100056D05020FFF788F904004ED0C4F830B0E2
:103320005846A5220099FCF755FF6FF00301206B6A
:1033300001EB8801084420F007084FF0000B002E35
:103340000CBF84F834B000200BD02118325C81F817
:103350003420315C00291CBF401C0A28F5D384F8B6
:103360003DB0052D28BF0425201DE562C4E9105B92
:10337000FFF7FEFD04F11800FFF7FAFD2461C5F127
:1033800005016462A161C4F848B084F84CB05246AB
:1033900049464046FFF7D2F92060002F18BF3C6035
:1033A0002546FFF70FFE2F4FB868401CB8603868FD
:1033B0002D4E48B1786950B32FE05846FFF72AFEEA
:1033C0004FF0FF30BDE8F88F3D60B868012808BFB6
:1033D000002422D104EB840006EB8000FFF7BDFD42
:1033E000641C052CF6D32148FFF7B7FD2048FFF7F2
:1033F000B4FD2048FFF7B1FD1F48FFF7AEFD1F48A1
:10340000FFF7ABFD1948B8631430F86305E038687E
:10341000E96AC06A884298BF3D60786A0121401C11
:103420007862E86A3A6981401143396100EB8000B3
:1034300006EB8000291DFFF7B9FDFFF7DDFD786978
:1034400060B13868E96AC06A884207D20C494FF017
:1034500080500860BFF34F8FBFF36F8F0120BDE82E
:10346000F88F0000D8010020881B0020EC1B0020F2
:10347000001C0020141C0020281C00203C1C0020E4
:1034800004ED00E02DE9F0419846069E154601271F
:1034900001B1FEE7A0B10446FFF794FD002E1CBF6A
:1034A000A06C306094F84C00022184F84C10214E3E
:1034B000B8F1050F12D2DFE808F01404070F0B0073
:1034C000FEE7A16C294301E0A16C491CA16408E05E
:1034D000022808BF002727D0A56402E0F16801B1E7
:1034E000FEE7012820D1201DFFF724FDE06A01211D
:1034F00032698140114331610F4900EB800001EBDB
:103500008000211DFFF752FDA06A00B1FEE7E06ACE
:103510003168C96A884207D908494FF0805008606D
:10352000BFF34F8FBFF36F8FFFF766FD3846BDE8DF
:10353000F0810000D8010020881B002004ED00E08D
:103540002DE9F0411C46069E1746884600B1FEE76D
:10355000FFF738FD1D4D286890F84C00022817D061
:10356000D5F800C0DCF8480020EA0800CCF8480094
:103570002868012180F84C1056B13046FEF7A8FFAC
:1035800013494FF080500860BFF34F8FBFF36F8F28
:10359000FFF732FDFFF716FD14B12868806C20603C
:1035A000286890F84C00022818BF002404D128682D
:1035B000816CB943816401242968002081F84C00A2
:1035C000FFF71AFD2046BDE8F0810000D801002079
:1035D00004ED00E02DE9F047334F0026786B28B169
:1035E000B869401CB8613046BDE8F087F868451CF2
:1035F000FD604FF0FF3915D1B86B006800B1FEE7F0
:10360000B86BF96BB963F863386A401C3862B86B01
:103610000068002808BFC7F8289003D0B86BC068BE
:103620000068B862B86ADFF88480A84298BF4FF09B
:10363000010A0CD8B86B006838B1B86BC068C468B0
:103640006068854211D2B86201E0C7F828903868F6
:10365000C06A00EB800058F82000012888BF0126CE
:10366000F869002818BF0126BDE7201DFFF762FC9E
:10367000A06A00281CBF04F11800FFF75BFCE06A99
:103680003A690AFA00F11143396100EB800008EB56
:103690008000211DFFF78AFCE06A3968C96A884208
:1036A00028BF0126C6E70000D8010020881B0020A3
:1036B0002DE9F0472F4D4FF00008686B38B1FFF748
:1036C00081FC686B401E6863686B08B14DE0FEE7E3
:1036D000A868002849D0284F38680126002818BF5C
:1036E000DFF898902AD0F868C46804F11800FFF752
:1036F00021FC201DFFF71EFCE06A2A6906FA00F192
:103700001143296100EB800009EB8000211DFFF7C8
:103710004DFCE06A2968C96A884228BFEE613868B2
:103720000028E0D154B1A96B2846096800290FBFD1
:103730004FF0FF31816BC96809688162AC6944B19F
:10374000FFF748FF002818BFEE61641EF8D1002083
:10375000A861E86948B10A494FF080504FF001086C
:103760000860BFF34F8FBFF36F8FFFF745FC4046F4
:10377000BDE8F087D8010020141C0020881B002021
:1037800004ED00E0800000000001000000020000E5
:10379000000400000008000000100000010000000C
:1037A0004275696C6474696D65203A4D61722031AF
:1037B0003020323032332031373A31343A35340028
:1037C0004552524F523A2073656E64206465765FAD
:1037D00061646472204949435F576169745F416362
:1037E0006B28696E64657829213D203020646576F8
:1037F0005F61646472203D203078257820696E64B2
:103800006578203D2025640D0A0000002C38000852
:103810000000002020020000BE020008D43800088A
:1038200020020020303A00000E170008110C2F1063
:103830000140040A3D14040A1818043208321032F8
:103840002032404280320132023204091121091D26
:103850001F093B401162FF3BA0371B51AB55AA0724
:10386000410065260F1923323C3E40424446484AF7
:103870004C4E50525456585A5C5E60626466686A98
:103880006C6E70727476787A7C7E80828486888A88
:103890008C8E90929496989A9C9EA0A2A4A6A8AA78
:1038A000ACAEB0B2B4B6B8BABCBEC0C2C4C6C8CA68
:1038B000CCCED0D2D4D6D8DADCDEE0E2E4E6E8EA58
:1038C000ECEEF0F2F4F6F8FA1AAA01013429FCD170
:0438D00044F36F0648
:0400000508000105E9
:00000001FF
